:020000040000FA
:0600000002139702084BF9
:03002B000210E5DB
:03003300020F8138
:0300530002077A27
:100083000207DC01010000000000F8FF07FFFF008A
:10009300000504000000030001FFFFFFFF00141030
:1000A3002700000020FD000206FFFF1E007601244A
:1000B300172A176C1D00000000000000000000005C
:1000C300000000000000000000000000000000002D
:1000D300000000000000000000000000000000FF1E
:1000E3000104010C00020738860000000204010C21
:1000F3000002010088000000010400005214000007
:1001030000E8030000FFFFA3140188130000E803C5
:10011300000064006400B801A0BB0D00A0BB0D008B
:10012300020202070401051E02051E020A0A01015A
:1001330008080103B80B02803E0102FEFFE8030A30
:10014300050001FFFF020A011401E00100B0423B78
:10015300AAB83F0000003F8C906339AA0CA33A0071
:10016300941E3C8042633DCFFE753E1572313F00C5
:1001730000803FF304353F8096184B000080BF2278
:1001830092D43EDD9B2A3F04000040FFFF7F7FFFA8
:10019300FF7FFF010080341872313F050301010F17
:1001A3000300030003000300030003000300030034
:1001B300030005000A00140028004F009E00000001
:1001C300A22F00000000762E00000000FF000000B8
:1001D300FF001213C560461213E3603DE96870081F
:1001E300F618F618F618F622748067F71202090952
:1001F3000909748067F7221213E3601D1213C57097
:1002030005191919801A121272701F121286C370FF
:1002130003E6673319191940071818182208080844
:1002230074FFF618F618F618F622121286601712E3
:100233001463702192F01214517019501720F014A6
:10024300080808090909E7F61819E7F61819E7F67F
:100253001819E7F62212145160E6E869701F0808BE
:10026300E62480F608E436F618547FB47F0CE6548F
:10027300806007F6E418F618F622181822E9C6CCAF
:1002830008C6CD08C6CE08C6CFC0E0E8C0E0EAC0C5
:10029300E0EBC0E009E9F809E7FA09E7FBE6F9183A
:1002A300E6F8C3EC98ED99EE9AEBC2E7F5F0EFC2EE
:1002B300E795F0500E600CEBCFFBEACEFAE9CDF9EF
:1002C300E8CCF8EAA2E7D2E7FAEB33FB13F5F0EE5A
:1002D300A2E7D2E7FEEF33FFC5F013A2E730E60152
:1002E300B313C5F0C3C0E0C0F07F00C39BFB605EE7
:1002F3009418600F401D14601AD0E023F9D0E0F881
:100303000203DB8AF0E9486003D2F0E4AFF0FAF9C4
:10031300F8803BEB30E40D89F0EA6003D2F0E4AF00
:10032300F0F9CAF8EB30E30D88F0EF6002D2F0AFDA
:10033300F0E4CAC9F8EB54076014FBC3EA13FAE903
:1003430013F9E813F8EF135002D2E0FFDBEDD0E02E
:10035300C0E030E739C3E49FFFF5F0EC98FC42F0CE
:10036300ED99FD42F0EE9AFE42F0D0E0F9D0E0F8CC
:10037300E5F0607AE923F9EE20E742D8028067C30B
:10038300EF33FFEC33FCED33FDEE33FE80EAEC2874
:10039300FCED39FDEE3AFED0E023F9D0E0F840025F
:1003A300801BC3EE13FEED13FDEC13FCEF135002A1
:1003B300D2E0FF08B800067F7F74FF802EEF335032
:1003C300178CF020F00260100CBC000C0DBD00086F
:1003D3000EBE000408E860DFE933E813FFEE2313E1
:1003E300FE4F4D4C8008E95480FFE4FEFDFCEE33E4
:1003F300EF33F47004FCFD7E80D0E0FBD0E0FAD054
:10040300E0F8D0E0CFC618CEC618CDC618CCC6F9D2
:10041300221213E37004181818221213C5700D74F6
:10042300FFF61819F61819F61819F622E75480661C
:10043300F6121451700F12146370F014F608F608D4
:10044300F608F680D1121463700CF608F60876806D
:1004530008E6447F80EC121289700C12127560BF9B
:10046300E65480F6E480BB121275700519191980E1
:10047300A5E869700C763F18768018F618F6E8F947
:1004830022E6CDC0E018ECC0E0E633CD33CDD31384
:10049300F6E719FCE7191933CC33C3947F400ECD2B
:1004A3009D502408E65480F6E418F6800FF4043DCA
:1004B30014501408E6447FF6187680E418F618F60C
:1004C300D0E0FCD0E0FD22CCD313CCFD18E4C6CBA6
:1004D300C0E018E4C6CAC0E00808ED08C633E61356
:1004E300F618E433C675F003C3CA97CA09CB97CB92
:1004F300199C40047D08802EBD00030205BD16B67D
:10050300FF050606081618C3CA33CACB33CB33CA52
:1005130027CA09CB37CB193CC37D08803E187D0819
:1005230020E75CC633C6CA33CACB33CB33DDF1D540
:10053300F0EB30E77BCA97CA09CB974ACB199C40AB
:100543006F4B7025E620E0218066187D08C3CA97AB
:10055300CA09CB97CB199CD3C633C6CA33CACB338C
:10056300CB3350C9DDE7D5F0E1D3E4C636C608C6C0
:1005730036C608C636C608C636C61818188031C32C
:10058300CA97CA09CB97CB199CB34097C633C6CA3F
:1005930033CACB33CB33DD34D5F02EC6A2E0C6400D
:1005A300C8CA27CA09CB37194A70BECB3CB480B935
:1005B3000808E63308E633601F181818D0E0FAD0AD
:1005C300E0FBD0E0FCD0E0FD22187D08CA27CA0971
:1005D300CB37CB193CD3808013F618E4B67F11F6E2
:1005E30018B6FF0EF618C60470D20808768080CAC3
:1005F300F618F618F680C5001213E3604F1213C500
:100603006012E7548066F61212727011121463704E
:100613003B090909F4F618F618F618F622121286A1
:10062300701512145108080860EAE6447FF618763C
:100633008018E4F618F6221214516016121463702F
:1006430012E4F608F608F608E65480F609090918D4
:10065300181822EAC0E0EBC0E0ECC0E0EDC0E0E631
:1006630087F0A4FBACF008E687F0A42CFCE435F09B
:10067300FA1809E687F0A42C4B60027401CA35F01E
:10068300FCE433FB09E687F0D2F7A42CCB35F0FC6E
:100693001908E687F0A42BCC35F0FBE433FD0819E9
:1006A300E687F0D2E7A42C4ACB35F0CD3400FC0921
:1006B300E687F0D2E7A42DCC35F0FDE433FA091830
:1006C300E687F0D2F7A42CCD35F0CA3400FC08E657
:1006D30087F0D2E7D2F7A42ACC35F07A7E20E70B55
:1006E3000ACB33CBCD33CDCC33CC33CB3350147097
:1006F30004ED30E00ED2F1E4CD3DCDCC3CCC3B500B
:1007030005DA05C2F1EB547FC63308E63392F0FBFA
:10071300E73309E733C39A502D2B70190C0D4C4D59
:1007230070151806E608C333700D20F10AA2F01302
:10073300F6E418800B4024E4F630F002768018F6D5
:1007430018F618F68024D33B14501074FFA2F0134C
:10075300F6187680E418F618F6800FA2F013F61850
:10076300E63303F618ECF618EDF6D0E0FDD0E0FC26
:10077300D0E0FBD0E0FA22C0E074F1120BE6A2AFA6
:10078300E433F509D2AF85A708AFA1EF5508FE748E
:10079300105E600612180875A1EF74085E600812F7
:1007A300180E75A1F78024EFA2E092F0E508A2E00D
:1007B30082F05017906198E0F8900634E0C398A255
:1007C300D265D0335002E8F075A1FE752300E50928
:1007D300A2E092AF7F02020C45C0E074F2120BE676
:1007E300A2AFE433FED2AF9061A4E0F8759B00E5BD
:1007F3009158540860087591F712185C8023E591AD
:1008030058541060087591EF1218628014E591A294
:10081300E092F0E8A2E082F05007E0C2E0F01219A3
:10082300B89061A3E0F8E5E9585404600E12198EFC
:1008330075E9FB906193E0A2E640F2752300EEA216
:10084300E092AF7F01020C45C0E074F2120BE6A206
:10085300AFE433FED2AF9061A5E0F8E5BF5854048E
:10086300600675BFFB1219D080D11208C230F04365
:10087300120907803E8A088B098C0A8D0B780812AF
:1008830008C220F01430E72B74FFFCFBFA747F805E
:1008930022E4FCFBFA7480801AB48008BC00F2BB2B
:1008A30000EF800F50EBF9E4C39AFAE49BFBE49C5E
:1008B300FCE499C6CC18C6CB18C6CA18C6F922E4FC
:1008C300C9C608CAC608CBC6D3330308CCC63392FD
:1008D300F0C3947F402E94184019C9B90704CACBBA
:1008E300CC225025C309CA33CACB33CBCC33CC3348
:1008F300D9F422F4600DC9CCC313CB13CBCA13CAEA
:10090300D9F6CC22E4FCFBFA2214FCFBFA22C3E462
:1009130098F8E499F91209528026C3E49AFAE49B01
:10092300FBE920E7E9120952E498F8E499F922C3B4
:10093300E498F8E499F9120952E498F8E499F9C3B0
:10094300E49AFAE49BFB22EB20E7CFE920E7E0B946
:100953000010BB0008E88AF084F8AAF022E4FBC880
:10096300FA22EB70227B10C833C8C933C93350074E
:10097300C39AC3DBF280069A50012ADBEAC833F438
:10098300C8C933F4C9FA2275F008E4C833C8C933B7
:10099300C933C99AC99B5004C92AC93BD5F0ECFB9A
:1009A300C833F4C8E4C9FA22080808EAC0E0EBC077
:1009B300E086F0E7A4FA180986F0E7A42AFA1809F2
:1009C30086F0E7A42AFA180986F0E7A42AFA19861A
:1009D300F0E7A4FBE5F02AFA190886F0E7A42BFB5D
:1009E300E5F03AFA190886F0E7A42BFBE5F03AFAAA
:1009F30018180986F0E7A4C5F02BFBE43AFA1908A6
:100A0300E7C5F0C6A426F6E5F03BFBE43AFA188600
:100A1300F0E7A4F6E5F00826F6E43B08F6E43A0826
:100A2300F6D0E0FBD0E0FA22080808E630E711121E
:100A3300124A120A43080808C64480C61818182226
:100A4300181818E9799EC608CAC608CBC608CCC6CA
:100A5300C370207996CACBCC7019798ECBCC701326
:100A63007986CC700EF9802ACA33CACB33CBCC3308
:100A7300CC331930E7F2CCCBCA3350147004EA30CC
:100A8300E00DE4CA3ACACB3BCBCC3CCC500209C301
:100A9300E913C6CC182313C6CB18C6CA18C6F92245
:100AA300E4CFC0E0E4CEC0E0E4CDC0E0E4CCC0E0FD
:100AB30075F020E626F608E633F608E633F608E690
:100AC30033F6181818EC33FCED33FDEE33FEEF3339
:100AD300FFC3EC9709ED9709EE9709EF97191919D9
:100AE300400FFFEC97FC09ED97FD09EE97FE1919EE
:100AF30006D5F0BFECF709EDF709EEF709EFF719A3
:100B03001919D0E0FCD0E0FDD0E0FED0E0FF2225B3
:100B130021C582C0E0E52234FFC583C0E0E521C3DF
:100B2300958224F810AF0885832285822180088569
:100B33008322858221D2AFCEF0A3E520F0A37808EB
:100B4300E608F0A3DEFAEFF0A3E58124FAF8E6085D
:100B5300F0A3E608F0A3E608F0A30808E608F0A36C
:100B6300E608F0A315811581D0E0FED0E0F81581E9
:100B730015811581E8C0E0EEC0E02212143CB900F3
:100B830003020BD0E4900501784079138002F0A3AF
:100B9300D8FCD9FA78239000867A01BA000280073C
:100BA300E493A3F608DAF97A407B17900087784F2D
:100BB30079028015E493A3AD82AE838A828B83F09E
:100BC300A3AA82AB838D828E83D8E9D9E775820D80
:100BD3007583F374041210C77582BE75832B74007A
:100BE3001210C7C0D02521C582C0E0E52234FFC55D
:100BF30083C0E0E521C3958224F310AF08858322E7
:100C03008582218008858322858221D2AFC8F0A303
:100C1300E9F0A3EAF0A3EBF0A37908E709F0A3D87E
:100C2300FAECF0A3EDF0A3EEF0A3EFF0A3D0E0F025
:100C3300A3D0E0F0A3D0E0F0A3E520F0A3E5F0F02B
:100C4300A322852283852182E0C0E0A3E0F9A3E00B
:100C5300FAA3E0FBA37808E0F608A3DFFAE0FCA31D
:100C6300E0FDA3E0FEA3E0FFA3E0C0E0A3E0C0E05B
:100C7300A3E0F5D0A3E0F520A3E0A3F5F010AF08BF
:100C83008583228582218008858322858221D2AFB4
:100C9300D082D083D0E0F8D0E03212124D18181869
:100CA300120AA312134619191922121346191919F4
:100CB300080808E618181820E7E0120AA312124DD4
:100CC30018181822090909E719191920E7DC080877
:100CD30008E618181820E703020AA312124D181881
:100CE30018120AA312124D181818121346191919BB
:100CF3002275F0108E248F258582298583288521EE
:100D030082852283E0CEA3E0CF852982852883EBE9
:100D1300C9EAC8EDCBECCAC3E833C8E933C9EA333F
:100D2300CAEB33CBC3EA9EF527EB9FF526B35004FA
:100D3300AB26AA27EC33CCED33CDD5F0DAAE24AF16
:100D430025221213E3601C1213C56017121451708D
:100D5300071214637001D322C0D01214637006D03B
:100D6300D0B322C32233D0D0501430E0F6C3E79679
:100D73000809E7960809E7960809E796B32220E0F1
:100D8300D5E6970809E6970809E6970809E697B3B1
:100D930022D083D082ECC0E0EDC0E0E493A3FCE476
:100DA30093A3FDED4C600D120EB8EC24FFFCED3463
:100DB300FFFD80EFE493A3FCE493A3FDED4C600DF2
:100DC300120FACEC24FFFCED34FFFD80EFD0E0FD0F
:100DD300D0E0FCE493A3C0E0E493C0E0221213E369
:100DE300601B1213C560161214517007121463604E
:100DF3000CB322C0D01214637005D0D022C32233A7
:100E0300D0D0501330E0EBC3E7960809E796080902
:100E1300E7960809E7962220E0E4E6970809E697B3
:100E23000809E6970809E69722D083D082E9C0E053
:100E3300E493A3C386F0C5F095F0F908E493A38681
:100E4300F0C5F095F0700BE493A3C3994005E90452
:100E53008002A3E475F002A42582F582E5F03583D0
:100E6300F583D0E0F9E493A3C0E0E493C0E02285E6
:100E73002283852182E0A3FEE0A3F5207808E0A386
:100E8300F608DFFAE0A3FFE0A3C0E0E0A3C0E0E0E0
:100E9300A3C0E0E0A3C0E0E0A3C0E010AF088582F8
:100EA300218583228008858221858322D2AFD08346
:100EB300D0820210CDC0E0C3E493960874019396E8
:100EC30018400FE493667008087401936618700065
:100ED3007019A3A3C3E49396087401939618A3A36C
:100EE300400DD0E0D0E0D0E0020DD0A3A3A3A3A394
:100EF300A3D0E0227404800474028000CCC0E0ED2F
:100F0300C0E0E521C39CCCAD2250011D10AF068C7F
:100F1300218D2280068C218D22D2AF121049D0E080
:100F2300FDD0E0FC2274028000CCC0E0EDC0E0E51F
:100F330021C39CCCAD2250011D10AF068C218D2204
:100F430080068C218D22D2AF121027D0E0FDD0E095
:100F5300FC221213E360251213C560201214517092
:100F630003021463080808E76670101819E766702F
:100F73000A1819E76670041819E76622F422C0E01C
:100F830074F2120BE6A2AFE433FED2AFE58BA2E01C
:100F930050057904121742758B00C2E8752300EEE1
:100FA300A2E092AF7F01020C45C0E0C0F088F0E4FC
:100FB300936670080874019366187000A8F0A3A3E1
:100FC300700BD0F0D0E0D0E0D0E0020DD0A3A3D0DE
:100FD300F0D0E022D083D082CCC0E0E493A36006BB
:100FE30012106A1470FAE493A360061211CC147001
:100FF300FAD0E0FCE493A3C0E0E493C0E022C0088D
:10100300C3E096F50808A3E096420808A3E09642D9
:101013000808A3E0964208A2D265D033E508700120
:10102300D3D00822CAC0E0E493A3C582CCC582C54D
:1010330083CDC583F0A3C582CCC582C583CDC583CB
:10104300DAE5D0E0CA22CAC0E0E0A3C582CCC582FB
:10105300C583CDC583F0A3C582CCC582C583CDC569
:1010630083DAE6D0E0CA22C0E0E493A3D39C501015
:10107300E493A3C39C400AD0E0D0E0D0E0020FF495
:10108300A3A3A3D0E0227009080808226016181849
:1010930018C6C333C608C633C608C633C608C63324
:1010A300C6D5E0EA22C008C3E096F50808A3E09697
:1010B300420808A3E096420808A3E0964508700199
:1010C300D3D00822C09FF59FE473D09F22D083D052
:1010D30082C09FE493C0E0740193C0E0740293F56F
:1010E3009F22C0E0C0D0E8C0E0A8A8D2AFC2C775B5
:1010F3002300E8A2E792AFD0E0F8D0D0D0E03225C9
:1011030021F58210AF08F521400C15228008F52146
:1011130040021522D2AF8522832200C0D0252110A0
:10112300AF08F521500C05228008F5215002052255
:10113300D2AFD0D0227404800A7403800674028074
:10114300027401C0E0F404121102D0E01213FF2272
:10115300BB0102E722C082C08389828A83BB00036A
:10116300E08002E493D083D082226016080808C688
:10117300C313C618C613C618C613C618C613C6D5D6
:10118300E0EA22C3E0C696F608A3E0C696F608A3F3
:10119300E0C696F608A3E0C696F6222521F8E435C4
:1011A30022F9222521FAE43522FB222521FCE4350C
:1011B30022FD22252110AF08F521400C15228008BD
:1011C300F52140021522D2AF22C0E0E493A36C7054
:1011D30009D0E0D0E0D0E0020FF4A3A3D0E022C313
:1011E300E7960809E7960809E7960809E796A2D261
:1011F30065D03322C3E09608A3E09608A3E09608DF
:10120300A3E096A2D265D03322E76670100809E7FF
:1012130066700A0809E76670040809E76622E06653
:10122300701008A3E066700A08A3E066700408A3C0
:10123300E06622C3E096F008A3E096F008A3E096E8
:10124300F008A3E096F022181818E4C396F608E411
:1012530096F608E496F608E496F622C3E697F608AF
:1012630009E697F60809E697F60809E697F62218BD
:101273001818E60846087009E626087005E633F4F0
:10128300220822191919E70947097009E727097084
:1012930005E733F4220922C3E49396087401939675
:1012A3000874029396087403939622E026F008A329
:1012B300E036F008A3E036F008A3E036F02270042D
:1012C30022600D18C6C333C608C633C6D5E0F4186A
:1012D30022E657F60809E657F60809E657F608091D
:1012E300E657F622E627F60809E637F60809E63751
:1012F300F60809E637F622E026F608A3E036F608F4
:10130300A3E036F608A3E036F622E056F608A3E09B
:1013130056F608A3E056F608A3E056F622E647F68B
:101323000809E647F60809E647F60809E647F622FC
:10133300E056F008A3E056F008A3E056F008A3E057
:1013430056F022E4C397F709E497F709E497F709FE
:10135300E497F722600D08C6A2E713C618C613C6A2
:10136300D5E0F322C6F4C608C6F4C608C6F4C60818
:10137300C6F4C622C3E09608A3E09608A3E0960845
:10138300A3E09622C3E7960809E7960809E79608BB
:1013930009E7962275D00075813F752101752205F5
:1013A30000020B7E600C08C6C313C618C613C6D54D
:1013B300E0F422E6F008A3E6F008A3E6F008A3E6CB
:1013C300F022E7094709C3134709336002E733F4FF
:1013D30022E0F608A3E0F608A3E0F608A3E0F6226D
:1013E300E6084608C3134608336002E633F4228056
:1013F3000100E9F874FF28F90470F622CAC0E0E698
:10140300F0A308DAFAD0E0FA22E0F8A3E0F9A3E0C7
:10141300FAA3E0FB22E8F0A3E9F0A3EAF0A3EBF0E0
:1014230022EAF0A3EBF0A3ECF0A3EDF022E0FAA3A1
:10143300E0FBA3E0FCA3E0FD22E5C754F84401F57B
:10144300C77901222521F582E43522F58322E62698
:1014530018461846184622C2AF75D69F02000022CE
:10146300E727194719471947221210D04CD0021207
:1014730010D0AFD0021210D0F3D0021210D08DD101
:10148300021210D00BD2021210D03ED2021210D090
:101493004CD3021210D06CD3021210D0C0D302125C
:1014A30010D0A8D4021210D0AAD6021210D04CD752
:1014B300021210D09CD9021210D020DA021210D0DE
:1014C30025DD021210D059DF021210D091DF021273
:1014D30010D0F0E0021210D0FAE0021210D049E16D
:1014E300021210D01BE3021210D0F5F4041210D034
:1014F30029F5041210D07CF5041210D07FF60412E3
:1015030010D0EAF1011210D066F2011210D099F254
:10151300011210D0C7F2011210D005F3011210D03E
:1015230040F5011210D05FF5011210D0A4F501129D
:1015330010D03AF6011210D086F6011210D01AF725
:10154300011210D0F2F7011210D04EF8011210D090
:10155300ACF8011210D029F9011210D05FF9011271
:1015630010D0AAF9011210D0D0F9011210D060FAEC
:10157300011210D0F7FA011210D043FB011210D060
:1015830074FB011210D0ABFB011210D031FD01121C
:1015930010D0FBFD011210D0CBFE011210D0F3D4FA
:1015A300031210D07CD5031210D0E2D5031210D051
:1015B30007D7031210D091D7031210D014D80312F7
:1015C30010D051D8031210D0E3D8031210D076D91B
:1015D300031210D049DA031210D026DC031210D004
:1015E300DADC031210D0C8DD031210D063DE03125D
:1015F30010D0B8DE031210D02CDF031210D038E263
:10160300031210D062E4031210D05FE5031210D06E
:101613009DE6031210D0A8E6031210D0A5D0041241
:1016230010D0D1D0041210D0F1D0041210D018D1A0
:10163300041210D05FD2041210D092D2041210D030
:1016430050D3041210D0EAD3041210D02F860512FF
:1016530010D03486051210D06786051210D02DFEE7
:10166300031210D048FE031210D07AFE031210D0DA
:10167300A7FE031210D0CCFE031210D0F7FE031204
:1016830010D022FF031210D052FF031210D010E823
:10169300041210D0D7E8041210D0E9E8041210D0D5
:1016A3005CE9041210D00282051210D013820512D5
:1016B30010D0B182051210D0BC82051210D0D48292
:1016C300051210D0F17F001210D0BF86051210D082
:1016D30021FF021210D031FF021210D046FF021276
:1016E30010D0FAFF021210D00080051210D08380B0
:1016F300051210D0E980051210D0AFE5041210D006
:10170300CDE5041210D0F5E5041210D019E6041249
:1017130010D03CE6041210D074E6041210D09CE6FC
:10172300041210D0D7E6041210D085E7041210D0AB
:10173300C97E001210D0507F001210D0597F0012C2
:1017430010D0807F001210D0C87F001210D0DF7F2E
:10175300001210D05EC9041210D06CC9041210D04C
:10176300E5C9041210D0BDCA041210D080CC0412F3
:1017730010D0CFCC041210D00DCD041210D0F87FAE
:10178300001210D003F1041210D03BF1041210D058
:1017930086F2041210D00AF3041210D087B3041295
:1017A30010D0B3B3041210D0F7B5041210D037B66B
:1017B300041210D077B6041210D08BB6041210D0D6
:1017C300A4B6041210D096B7041210D03BB804127A
:1017D30010D04FB8041210D0D9F6041210D0FDF671
:1017E300041210D016F7041210D048F7041210D0C8
:1017F30078F7041210D0A5F7041210D0AFF7041233
:1018030010D011F8041210D020F8041210D02AF8C6
:10181300041210D037F8041210D00AE3041210D0C7
:101823002AE3041210D069E3041210D084E30412F3
:1018330010D0A3E3041210D009E4041210D012E470
:10184300041210D06FE4041210D07EE4041210D0FE
:10185300A2E4041210D063E5041210D070E5041260
:1018630010D081E5041210D02484051210D06C84AA
:10187300051210D09884051210D0D6AE041210D0E1
:1018830030B0041210D03EB0041210D051B0041284
:1018930010D066B0041210D07BB0041210D08EB0FA
:1018A300041210D002B1041210D067B1041210D088
:1018B300EFB1041210D06BB2041210D02FB3041284
:1018C30010D03FB3041210D04EB3041210D08B8348
:1018D300051210D0AF83051210D0D783051210D094
:1018E300FF83051210D06DEA041210D094EA04129B
:1018F30010D0B2EA041210D025EB041210D037E056
:10190300041210D050E0041210D05CE0041210D086
:1019130070E0041210D08EE0041210D098E004128C
:1019230010D0A2E0041210D0B5E0041210D03BE1B5
:10193300041210D0B0E1041210D0DFE1041210D071
:101943002DE2041210D07CE2041210D097E20412AC
:1019530010D0A1E2041210D0B2E2041210D0F5E2CA
:10196300041210D07985051210D0C485051210D049
:10197300929F041210D0BC9F041210D0D99F04125E
:1019830010D0EC9F041210D002A0041210D060A05B
:10199300041210D098A0041210D08CA4041210D0FA
:1019A300D1A5041210D004A6041210D067A6041205
:1019B30010D0C7A7041210D0EFA7041210D004A8A8
:1019C300041210D014A8041210D058A8041210D076
:1019D300B3A8041210D0C3A8041210D0D7FA04126B
:1019E30010D0F1FA041210D019FB041210D032FBFC
:1019F300041210D056FB041210D074FB041210D042
:101A03008BFB041210D0B9FB041210D0D4FB0412C8
:101A130010D03FFF041210D083FF041210D020CD4A
:101A2300041210D030CD041210D035CE041210D0D1
:101A330067CE041210D097CE041210D0BACE04127F
:101A430010D0D1CE041210D00BCF041210D070CF0F
:101A5300041210D0B2CF041210D0F1CF041210D060
:101A630022D0041210D04DD0041210D041F8041229
:101A730010D053F8041210D067F9041210D06AF989
:101A8300041210D03BFE041210D071FE041210D0C9
:101A930087FE041210D0C9FE041210D0D9FE04121E
:101AA30010D01DFF041210D027FF041210D042F7EC
:101AB300031210D085F7031210D0EAF7031210D0E7
:101AC30007F8031210D0A9F8031210D0B2F80312CA
:101AD30010D0F7F8031210D020F9031210D02DF90B
:101AE300031210D0A8F9031210D033FA031210D046
:101AF30078FA031210D0C3FA031210D028FB031292
:101B030010D04BFB031210D0BCFB031210D011FCFE
:101B1300031210D04CFC031210D081FC031210D01E
:101B230093FC031210D0A5FC031210D0C4FC0312C3
:101B330010D0CDFC031210D080FD031210D0C3FDD2
:101B4300031210D001FE031210D0A4FF011210D013
:101B530097F9041210D0BEEC041210D0F4EC041266
:101B630010D03CED041210D095EE041210D060C1D9
:101B7300031210D079C2031210D0B3C2031210D0D3
:101B830061C4031210D08FC4031210D0F5C6031220
:101B930010D035C7031210D0D9C8031210D069C9A9
:101BA300031210D0BDC9031210D05FCA031210D0A4
:101BB300A1CA031210D0E3CA031210D040CC0312FF
:101BC30010D08ECD031210D0C5CF031210D0F3CF97
:101BD300031210D01AD0031210D023D0031210D046
:101BE3007AD0031210D015D1031210D01DD40312D2
:101BF30010D0A4D4031210D0E382051210D0FB82BC
:101C0300051210D00583051210D05983051210D088
:101C130063B8041210D079B8041210D01AB90412A0
:101C230010D059B9041210D076B9041210D0A7B944
:101C3300041210D0F4B9041210D027BA041210D031
:101C430062BA041210D05DBC041210D0C5BC0412D9
:101C530010D00281051210D06181051210D09F812E
:101C6300051210D0E081051210D025FD041210D00A
:101C7300E3FD041210D0B9A5021210D0C5A50212BB
:101C830010D027A6021210D031A6021210D0C2A67D
:101C9300021210D0FEA6021210D0F8A7021210D022
:101CA30044A8021210D0D2A8021210D050A90212D6
:101CB30010D004AB021210D02FAD021210D06DAEB3
:101CC300021210D0A9B0021210D00DB2021210D01D
:101CD300C4B2021210D0B0B7021210D0A4B80212CC
:101CE30010D048B9021210D06DB9021210D004BA44
:101CF300021210D01ABA021210D091BA021210D0E6
:101D0300B0BA021210D0D9BA021210D06FBC0212AC
:101D130010D090BC021210D036BD021210D07DBD7F
:101D2300021210D0EFBD021210D07DBE021210D0ED
:101D3300D9BE021210D04FBF021210D0D0C002126F
:101D430010D029C3021210D0B0C3021210D0DAC3CC
:101D5300021210D0F3A8041210D0B9A9041210D0A3
:101D6300A2AA041210D02CAD041210D049AD041253
:101D730010D06BAD041210D01CD4041210D0D6D4E2
:101D8300041210D03CD5041210D0E4D5041210D0A4
:101D93009CAC031210D0CBAC031210D043AD031292
:101DA30010D046AE031210D0A2AE031210D019B059
:101DB300031210D035B0031210D087B0031210D025
:101DC300CAB0031210D0DDB0031210D02FB103122A
:101DD30010D0EAB1031210D064B2031210D08EB245
:101DE300031210D0C6B2031210D042B4031210D0A3
:101DF3001BB5031210D064B6031210D037B7031209
:101E030010D0BFB7031210D007B8031210D021B8F7
:101E1300031210D068B8031210D088B8031210D080
:101E23001EB9031210D0A4B9031210D0FEB90312C5
:101E330010D042BA031210D0D3BC031210D0F6BD97
:101E4300031210D032BE031210D024BF031210D0DD
:101E53004CBF031210D04FBF031210D059BF03124F
:101E630010D06CBF031210D0EBBF031210D021C0EF
:101E7300031210D04DC0031210D074C0031210D03F
:101E830098C0031210D009C1031210D017C1031256
:101E930010D04AC1031210D09B84051210D0A7841E
:101EA300051210D0DB84051210D0F47F001210D07D
:101EB3008296031210D0A596031210D0EB9703124B
:101EC30010D03498031210D09C98031210D0FA98B3
:101ED300031210D0FD98031210D04999031210D0A9
:101EE300BC99031210D0449A031210D0479A0312DC
:101EF30010D0D19A031210D0129B031210D0F59E6A
:101F0300031210D08EA0031210D0ECA0031210D035
:101F130067A4031210D0A0A5031210D00FA70312B9
:101F230010D0BD9E041210D0B8A8031210D009AB74
:101F3300031210D0E7E6031210D091E7031210D07A
:101F4300F7E7031210D091CF021210D08CE80312DE
:101F530010D0E2E8031210D032E9031210D099E94D
:101F6300031210D012EB031210D040EC031210D066
:101F7300C5EC031210D0CBEE031210D074EF031292
:101F830010D01DF0031210D0DFF0031210D088F22E
:101F9300031210D030F4031210D0E1F4031210D066
:101FA300F9F5031210D0B0E4021210D024E50212A6
:101FB30010D0F8CD021210D0B0E5021210D0F9E51E
:101FC300021210D043E6021210D07BE6021210D0A8
:101FD300F9E6021210D053E7021210D0A7E802125A
:101FE30010D038E9021210D090E9021210D0AAE9F9
:101FF300021210D0D2E9021210D02AEA021210D033
:1020030099EC021210D0B8EC021210D09CED02121F
:1020130010D0CCEE021210D049EF021210D098EF7C
:10202300021210D0F9EF021210D09FF0021210D05A
:102033006DF2021210D06DF3021210D0EBF4021203
:1020430010D0CCF6021210D032F9021210D0E2FAFC
:10205300021210D0B2FB021210D020FC021210D0D8
:1020630037FC021210D02FFD021210D01FFE0212F5
:1020730010D08AFE021210D080DA041210D0CCDB0A
:10208300041210D089DC041210D0EDDC041210D03D
:102093005AD7041210D075D7041210D0B9D704122E
:1020A30010D0DFD7041210D005D8041210D01DD8D9
:1020B300041210D080D8041210D095D8041210D076
:1020C300B8D9041210D0C1D9041210D0CAD904123D
:1020D30010D0D3D9041210D0DDD9041210D0D2BC41
:1020E300041210D0D1C0041210D0D6C0041210D0E4
:1020F300D8C0041210D082F3041210D0A1860512A6
:1021030010D061DD041210D007FC041210D010852A
:10211300051210D0F4EE041210D07586051210D0FB
:1021230073C5041210D0D085051210D0E0850512B6
:1021330010D03FC1041210D00080021210D033809F
:10214300021210D09F80021210D03A81021210D0D6
:10215300D781021210D01C82021210D03E820212CA
:1021630010D05782021210D07D82021210D09F82AB
:10217300021210D0DD82021210D02183021210D07D
:102183004383021210D0A583021210D06C84021272
:1021930010D02385021210D09585021210D06086CC
:1021A300021210D0B386021210D01987021210D077
:1021B3005387021210D0A587021210D0138802127F
:1021C30010D07E88021210D08188021210D00289AA
:1021D300021210D09989021210D0198A021210D05B
:1021E300388A021210D09C8B021210D0A98B0212D3
:1021F30010D0B58C021210D0C28C021210D0CB8C2E
:10220300021210D0A38E021210D0BD8F021210D072
:102213003690021210D0A890021210D0CA90021267
:1022230010D05E91021210D03293021210D009978F
:10223300021210D01D97021210D02D97021210D047
:102243003797021210D04097021210D0499702120A
:1022530010D05397021210D08097021210D0A99772
:10226300021210D0B497021210D0D897021210D0D5
:10227300FC97021210D06698021210D0AC9802128A
:1022830010D0C998021210D04699021210D07D992D
:10229300021210D0BC99021210D0099A021210D067
:1022A3008F9A021210D05D9C021210D0E09C021291
:1022B30010D0C49D021210D02BA0021210D084A003
:1022C300021210D0CEA0021210D029A2021210D0F6
:1022D3005EA2021210D0B0A2021210D065A30212A5
:1022E30010D014A4021210D051A4021210D0E6A4EC
:1022F300021210D052A5021210D00C32001210D0CC
:102303003E32001210D06C32001210D04234001250
:1023130010D02235001210D07A35001210D0B53605
:10232300001210D00137001210D02A3A001210D038
:102333001D3D001210D06D3E001210D0033F00125D
:1023430010D00F3F001210D0413F001210D0C440F4
:10235300001210D07542001210D00943001210D0A1
:102363004C43001210D0CA43001210D0E7430012AE
:1023730010D01744001210D04C44001210D01C454A
:10238300001210D0C545001210D04B48001210D0D7
:102393006B49001210D0564A001210D0D84A0012CE
:1023A30010D00C4F001210D0494F001210D0A14F83
:1023B300001210D0D44F001210D03E50001210D093
:1023C3007450001210D0FF50001210D05751001259
:1023D30010D02E52001210D0E752001210D08253A8
:1023E300001210D08A56001210D0A657001210D037
:1023F300495B001210D03D5C001210D0405C00120B
:1024030010D06F5C001210D0755E001210D04E5FBA
:10241300001210D0915F001210D0E760001210D0AC
:102423002661001210D0AF61001210D0E3610012D8
:1024330010D0A862001210D0C064001210D0316511
:10244300001210D07165001210D0FF65001210D079
:102453002167001210D0E367001210D0EA6900125E
:1024630010D0026A001210D0166A001210D04E6A01
:10247300001210D07C6A001210D0FB6B001210D037
:10248300206D001210D07D6D001210D02F6E00123F
:1024930010D0566E001210D01D6F001210D0B56F01
:1024A300001210D0DB71001210D01072001210D085
:1024B3007372001210D0A273001210D04A7400126B
:1024C30010D07B74001210D09374001210D02275B8
:1024D300001210D0D677001210D0AE79001210D0AF
:1024E300CA79001210D0E679001210D0B47A001223
:1024F30010D0A77E001210D00888011210D03A889D
:10250300011210D0298C011210D0758C011210D039
:10251300BB8C011210D05D8D011210D0B98D011248
:1025230010D0FE8D011210D0458F011210D059909A
:10253300011210D04894011210D0CC94011210D083
:10254300D995011210D03596011210D02598011299
:1025530010D09A98011210D0A498011210D0B198FB
:10256300011210D0DC98011210D0C399011210D0BF
:102573006D9A011210D0EB9A011210D00B9B01122D
:1025830010D0349B011210D0569B011210D0B69D6F
:10259300011210D07C9E011210D0C19E011210D0E6
:1025A3003E9F011210D0EF9F011210D021A0011203
:1025B30010D067A0011210D0A3A0011210D0F3A075
:1025C300011210D047A1011210D09DA1011210D009
:1025D300E9A1011210D056A2011210D0D1A201120A
:1025E30010D09CA4011210D09CA5011210D0C1A63A
:1025F300011210D000AA011210D013AD011210D095
:10260300D0AD011210D014AE011210D0C4AF01121C
:1026130010D0D8AF011210D0E2AF011210D0ECAF3E
:10262300011210D0F8AF011210D014B0011210D063
:10263300BFB0011210D0FEB0011210D008B10112C8
:1026430010D012B1011210D082B1011210D0CDB14D
:10265300011210D0E2B2011210D03EB3011210D019
:10266300BFB3011210D07EB4011210D087B501128E
:1026730010D0BBB6011210D0A9B7011210D0C1B748
:10268300011210D01CB8011210D03AB8011210D0A8
:1026930082B8011210D0A9B8011210D044B90112A6
:1026A30010D00ABA011210D09CBA011210D016BB76
:1026B300011210D030BC011210D0DDBC011210D0B9
:1026C30005BE011210D055BE011210D0B9BE0112C1
:1026D30010D01BBF011210D049BF011210D06DBF23
:1026E300011210D0A2BF011210D0D3BF011210D01B
:1026F30006C0011210D026C0011210D08EC00112E4
:1027030010D082C1011210D0DDC1011210D006C257
:10271300011210D08EC2011210D011C3011210D0B9
:102723003CC3011210D021C4011210D00080041246
:1027330010D03880041210D05980041210D09B801E
:10274300041210D0FD80041210D00781041210D09F
:102753001781041210D05281041210D03285041252
:1027630010D01F87041210D00589041210D09C8941
:10277300041210D03E8A041210D023C6011210D0C6
:10278300A1C6011210D0FDC6011210D048C7011214
:1027930010D063C7011210D08EC7011210D0ABC77F
:1027A300011210D0B7C7011210D04EC9011210D0B8
:1027B30067C9011210D0ECC9011210D0FFC9011270
:1027C30010D01ECA011210D0C2CA011210D043CCBD
:1027D300011210D0F6CD011210D08CCE011210D000
:1027E3008FCE011210D0FFCE011210D01DCF0112D7
:1027F30010D0B4CF011210D0FCCF011210D0FFCFF4
:10280300011210D0C5D0011210D032D1011210D054
:1028130058D1011210D0E3D1011210D001D201120C
:1028230010D047D2011210D0FBD2011210D045D3E1
:10283300011210D074D3011210D0D1D3011210D0D1
:1028430006D4011210D032D4011210D040D4011298
:1028530010D08DD4011210D0FDD4011210D046D562
:10286300011210D092D5011210D0BED5011210D092
:10287300C9D5011210D0E7D5011210D0D2D601125A
:1028830010D0DCD6011210D017D7011210D027D7E1
:10289300011210D030D7011210D084D7011210D0FA
:1028A30098D7011210D0C7D8011210D0DED8011268
:1028B30010D0F3D8011210D081D9011210D0C6D98B
:1028C300011210D052DA011210D05DDA011210D0C9
:1028D3009FDB011210D0BADB011210D006DC01120B
:1028E30010D075DC011210D0AEDC011210D0C8DCA0
:1028F300011210D00ADD011210D0DADF011210D05C
:1029030087E0011210D0F4E0011210D034E3011279
:1029130010D04CE3011210D04FE3011210D05BE34F
:10292300011210D06FE3011210D077E3011210D01F
:10293300AAE3011210D0ACE4011210D033E5011266
:1029430010D0A3E5011210D025E6011210D0E6E65F
:10295300011210D005E7011210D0A6E7011210D022
:1029630003E8011210D006E8011210D033E8011277
:1029730010D048E8011210D0BCE8011210D00BEAC5
:10298300011210D011EB011210D09CEB011210D0E8
:10299300B7EC011210D07FED011210D0B0ED01128F
:1029A30010D0D3ED011210D0DCED011210D00BEEDC
:1029B300011210D09BEE011210D051EF011210D072
:1029C300C6EF011210D06DF0011210D0E2F0011227
:1029D30010D019F1011210D057F1011210D08DF15E
:1029E300011210D009CF021210D0269D041210D06C
:1029F300689C041210D0CB9B041210D0C19B04120C
:102A030010D06B9B041210D0579B041210D0B69AAF
:102A1300041210D0BA99041210D0E498041210D002
:102A2300ED96041210D04096041210D0D2950412E1
:102A330010D0BCCE021210D010E8031210D0529660
:102A4300031210D04896031210D099CB021210D063
:102A530052C8021210D0DD95031210D03194031224
:102A630010D0EF93031210D00F93031210D0F992EA
:102A7300031210D0BA92031210D01592031210D081
:102A83000F8F031210D0FD8C031210D0CA8C0312C7
:102A930010D0658C031210D0F88B031210D0B78BB3
:102AA300031210D0F08A031210D08B8A031210D0B5
:102AB300368A031210D0D989031210D0B0880312BA
:102AC30010D04D88031210D09787031210D092872D
:102AD300031210D08687031210D03984031210D04A
:102AE3001384031210D093C7021210D0F0C602123F
:102AF30010D0AFC6021210D090C6021210D05DC61D
:102B0300021210D048C6021210D01DC6021210D0F5
:102B1300B883031210D06383031210D024830312EB
:102B230010D01183031210D04C9F041210D00683CF
:102B3300031210D0E282031210D0F180031210D0DE
:102B43007080031210D08FCE021210D02C8003128B
:102B530010D06CE5021210D00080031210D07495CF
:102B6300041210D03695041210D00995041210D017
:102B7300D594041210D07494041210D05C940412EF
:102B830010D03894041210D00191041210D0CD8EBD
:102B9300041210D0B48C041210D0438C041210D041
:102BA300F28B041210D0AC8B041210D0158B0412CC
:102BB30010D0149F041210D0ADA70300000080FBB7
:102BC300000022E4738F0001000318870001000155
:102BD3001835000400CA1725000200CE172600028C
:102BE30000D01727000200D21728000100DC1729A4
:102BF300000100DD17840004002E15860001004E3D
:102C0300172A000100DE172B000100DF172C00013B
:102C130000E3172D0008003A152E000100E4172FDA
:102C2300000100E51730000100E61731000100E75D
:102C3300173200010042153300010043153400012F
:102C430000E81736000100441538000100E9173980
:102C5300000100E21783000200FF17630001005028
:102C63001564000100E01765000100E1176D000124
:102C730000511571000800321566000100FE17436C
:102C8300000100EF1744000200F01745000100F2B5
:102C93001746000200F317470008004815480001D3
:102CA30000F5174B000100F617040001000218A1FC
:102CB3000001000618370001000518880001000410
:102CC300183C00010045153D000100EA17490002C8
:102CD30000F7176700010052154D000200F9174E67
:102CE300000100FB174F000200FC173E000100EE3D
:102CF3001751000100461552000100EC1753000163
:102D030000ED17540001004715000000000000000B
:102D13000136360101000102010001030100010433
:102D230001060605020000070100340801000F092F
:102D33000401010D0100FF0E080000170200001935
:102D43000100FF1A0100011B0100FE1C0100081D08
:102D53000200001F010001200100012102000023E5
:102D630001000F24020000260100012701000828AA
:102D73000200FF2A0100072B0102402C0100002D55
:102D83000100012E0100012F0100FF30010B1D3155
:102D93000800003A0100083B01000F3C0100013D1F
:102DA3000100FF3E04000042040000460400004A04
:102DB3000400004E04000052040000560400005AB0
:102DC300040000000000002001068800000100202C
:102DD3000107880000020020010288000003002090
:102DE30001038800000400420194860000050042AC
:102DF30001468600000600420116860000070030E7
:102E030001048800000040420116860000FDFF21F6
:102E130001FE870100200020055617010021002034
:102E2300055717010000022105581700040000216F
:102E330005221402040000290514140304000029C8
:102E4300051614030410002905181403041400289C
:102E5300019B170504000021051A14080400002132
:102E6300051C140804000221051E14080401022194
:102E73000558170103710301030103010301030152
:102E830003220302030103100300030003000300F2
:102E930003000300030003420300032403060300AB
:102EA300030003040312032503230325032303045D
:102EB300030403000300030003440300030003238C
:102EC30003000365032100350381030003050300A9
:102ED30003000300030003250323030302710230ED
:102EE300016002110270020102020202028002105A
:102EF3000261023A004100630273027202620243FA
:102F0300020002130238000002000204021202004F
:102F13000200020002000204020402370037003CF0
:102F23000244020002390000020002650200023579
:102F33000281020002050282028302000201017182
:102F430001010101011101010131010101010180AF
:102F530001100161013B00140063017301720162FE
:102F63000143010001130106013D01350004011273
:102F730001000100010001000104010401330133D8
:102F8300013C0144013201360000010001650100EA
:102F93000135008101000105018201830100010364
:102FA30000710030016000110070003102200350F5
:102FB30004800010006100000014006300730072BD
:102FC300006200430000001300060000000000043C
:102FD300001200000000000000000004000400379D
:102FE3000037003C024400000000000000000065C0
:102FF3000000003500810000000500000083000090
:103003000036000100060000000F00000000000071
:103013000000000000000003FFFF00000403FFFFA7
:103023000000FFFF0FF4010005C4040320000100AA
:10303300000B000000000000000003010F0000006F
:10304300000000000000000000000000000000007D
:10305300000000000000000000000000000000303D
:103063001D4E1D361D941C000000000000000000D2
:10307300000000000000003C1D941C000000004202
:103083001D941C0000000000000000481D941C005B
:10309300000000000000000000000000000000002D
:1030A300000000000000000000000000000000001D
:1030B300000000000000000000000000005E1F018F
:1030C300005E1F0200D41E0280CE1E0300DA1E041F
:1030D30000E01E0480E61E0500EC1E0600F81E310B
:1030E300000A1F3300101F3400161FFFFF000003E8
:1030F3000003000400080010001F003E007B00F6E0
:1031030000EC01D703AF075D0FB91E713D00000747
:10311300ECFDFDFDECDCDCCCBCACAC9C9C8C7C7C89
:103123006C6C5C5C5C4C4C3C3C2C2C1C1C03EAF52E
:10313300E5D5D5C5B5A5959585857575656555554C
:103143004545353525251515050A7025023A25050A
:1031530046250740250C22250D2E25FF00000016CD
:103163000F00000B150B020002220F3300000E0F9D
:103173005A6967426565416C6C69616E6365303994
:10318300D0D1D2D3D4D5D6D7D8D9DADBDCDDDEDFC4
:10319300303016181920231A1C1E3000034D4C46DC
:1031A30051181A25050200011916181616182303BB
:1031B30000303017181921301B1D1F30003C4042CE
:1031C3003A3F3F392F47300C0E020B040B0A070816
:1031D300000F020402010101010902020400002997
:1031E300052014E803000000BE040A24000300E8DD
:1031F3000301000409100116031E1E030A0C040533
:103203000828020C050815FF0FC082C0831215029F
:1032130090157D7412F0A37423F090157F7418F049
:10322300A37423F0901581741EF0A37423F09015FA
:10323300837424F0A37423F0025F4774F7120B1214
:10324300901571E4F0E9901570F07C487D157A7261
:103253007B15121C649017F5E090157AF090157B9E
:103263007432F0A374150241D474F0120B12EAFE07
:10327300EBFF548070030233DD90157012426970C6
:10328300030233D6EA241B125AD4707CEA241F1299
:103293005AD464137002A3E0706E8A828B83123453
:1032A3002B90158B125066750A00750B00800D125A
:1032B30040AA127146121B68AA0EAB0FEA4B604874
:1032C3008A828B83E0650C7004A3E0650D702C8A01
:1032D300828B83A3A3A3A3E0F50EA3E0F50FE50A76
:1032E300450B8A828B83A3A3A3A360C31243AC853C
:1032F3000A82850B83A3A3A3A380B78A0A8B0B8AB5
:10330300828B8312506280B4E508242A125AD4FCBB
:10331300E5082402F8E43509F9E8FAE9FB90158B8E
:10332300123512A3A3E06402703C8A828B8312508D
:1033330066800B88828983A3A3A3A31243ACE849C5
:10334300601F88828983E06A7003A3E06B70E4885E
:10335300828983A3A3E06C70DA9017FB125E04806A
:103363006BECF912234E850882850983E0640170B2
:103373004FE50824181234141211441266EE120E8B
:10338300F7E5082412123414121144E50812425DC1
:10339300121140E508240B1266F2120EFBE5082415
:1033A300171241FAE5082402FCE43509FDE5082477
:1033B30019FAE43509FB122B94740A12111D800CBF
:1033C300E064027007AA08AB0912242CAA08AB090F
:1033D300121AD2EEFAEF6480802DEA5402600C9048
:1033E300185A7401F0EA6402FA8023EA5408601A56
:1033F300122348EA4B700B90158D1265C97A081297
:103403003421EE6408FAEFFB80047A007B00026D3E
:1034130078F582E43509F583E0F50A780A22FB9012
:103423001570E0F9121C3422A3A3E0F50CA3E0F518
:103433000D227B00901570E0F9121C28740422748D
:10344300F4120B128A088B098A828B83A3A3A3121B
:103453004E5E12420538F583E02409FA126D1070AE
:10346300030235058A828B837402124ED385088248
:10347300850983123512E8F0A3E912698A8A828BDF
:1034830083A3A3A3A3A3A3A3A3F0E5082403F8E4BE
:1034930035091235071242053AF583E08E828B8394
:1034A300A3A3A3A3F0EE2409FAE43FFB8E828F8348
:1034B300A3A31260B6F5838882E0A2E58E828F8390
:1034C300A3A3A3A3A3500474018001E4F0E508249B
:1034D30003F5828983125066EA1255E73BF583129E
:1034E3006CD712113C1242043B1261A88E828F8367
:1034F300A3A3127E8612111DEEFAEFFB9015701234
:103503006D5D8016F98882F583E0FAA3E0CA221282
:103513005203A3A322740212111D7F04020E7274BC
:10352300F2120B128A088B09ECFAEDFB740E1214DB
:1035330047E0FC1215388A0C8B0DAE0CAF0DEA4F29
:103543006030AC08AD09121526E96026AC08AD0958
:10355300EEFAEFFB12152CE970148E828F8312435F
:1035630099FAEFFB121520AA08AB0912155079003E
:10357300800279B402515274F0120B1274F61211D4
:10358300B6EAFEEBFF8C088D09750FB385218285A2
:103593002283E4F0750E008002050E903202E4935C
:1035A300F8E50EC39840030236A1AA0E7B0012155C
:1035B300748A0A8B0BEA4B60E08A828B83A3A31283
:1035C30036A828F0F8C3EE98EF940050CC7C157D14
:1035D300007900AA08AB09121ABA850A82850B83FF
:1035E300A3A3A3A3127183E0F8EEC3982925E0F8FF
:1035F300E433F9E50A28F582E50B39F583A3A3A3A0
:10360300A3A3A312420FA3125C2B8A0C8B0DAC0C49
:10361300AD0DAA08AB09121C64850A82850B83A32E
:10362300E06401700A1266EE740112422180447450
:10363300011211AE850A82850B8312506412155C48
:10364300E9603D7409121447E0C0E01266EED0E071
:10365300F07409121447E06403701374011211AE7D
:10366300E508240BFAE43509FB121C64801274018B
:103673001214471243ACE508125C11350912714468
:10368300850A82850B831266FA124221A3A3E0C046
:10369300E0E50824141266F2D0E0F0750F00A90FDC
:1036A300740A026D75A3A3A3E0F8852182852283A2
:1036B300E02274F7120B12E9FE8A828B83A3A3A381
:1036C300A3A3A3E0540860338A828B83A3A3A3A399
:1036D300A3A3E0540260218A828B83A3A3A3A3A3A1
:1036E300A3A3A3A3E06406600F74E96E600A74CD1C
:1036F3006E600574F06E7003122330024A5174F049
:10370300120B1274EF1211B6740F1214471264AD38
:103713007408121447E9F0ECFEEDFF740512144728
:10372300124819124A3DA3E0F91215447406121403
:10373300471264AD740612144712567870030239A7
:10374300BC124249E0FA7406121447E0F9122270DF
:10375300123A1CF8A3E0F9E84970030239BCEE24DD
:1037630003F50AE43FF50BEE2406F508E43FF509FB
:103773007C00850882F583125066850A82850B8357
:10378300E0F912154A74031214471264AD850A82D4
:10379300850B83E0C0E0852182852283123A15D010
:1037A300E012578DF98521828522831240B112528E
:1037B300DF1236ABFAA3E0CA2407F582E43AF583B5
:1037C300E8F0A3E41264B82406F582E438F583E450
:1037D300127150124E5212113CEE1242053F126109
:1037E300A87403121447124E5E2409127E8012112C
:1037F3001D742912144712717D12350C1257A03A09
:10380300127144742B121447E0C0E0852182852293
:103813008312563FD0E0F07402121447E4F074258B
:1038230012144778081213D402391374031214477D
:103833001261708882F583123A04A3A3A3125C3643
:10384300FB121562850E82850F83A3EAF0A3EBF0CA
:103853007403121447123A15A3123A04125E45A2D6
:10386300E6500F850E82850F83A3A3A3A3A3E0D203
:10387300E1F07405121447E0706B850E82850F83A7
:10388300A31243AC9015CBE0687003A3E0697055B5
:10389300850E82850F83A3A3A31241E4750C0078E0
:1038A3000C12114478081211387429121447E0F5E8
:1038B3000C780C1211447427121447120EFB901546
:1038C300D8120EFB790074191214471250361224C1
:1038D30074740A12111D850E82850F83A3A3A3A3FB
:1038E300A3E04405F07402121447E004FC8E828FB7
:1038F300831250608E828F83A3A3A3E0F912154A2B
:1039030074031214471264AD7402121447E004F0F6
:10391300740312144712567860677402121447E056
:10392300FA74061214471243ACC3EA98E49950514F
:103933007402121447123CEE852182852283E0280B
:10394300F8A3E039F9E8240FF50EE439F50F850EF5
:1039530082F583E4F07403121447123A0F64016092
:103963000302382E74051214477401126D63F07448
:1039730003121447125F37123D11E8F0A3E902382E
:1039830052852182852283125066122276852182F6
:10399300852283120EFB7426121447E0FD74251250
:1039A3001447E0FC740A121447E0F9EEFAEFFB1235
:1039B300232A740212111D80438E828F83A3A3A333
:1039C300E0C0E0740C121447D0E0F0126BCCE0C0FE
:1039D300E0740D121447D0E0F07406121447125627
:1039E300787009740E12144774B98007740E121498
:1039F300477410F074091211A612246E7411026D2B
:103A030075E0850E82850F83A3A3A322E012576579
:103A1300E022E0125765A3A322852182852283EA4F
:103A2300F0A3EB1256812274F0120B1274E11211FF
:103A3300B67404121447E9F07403121447ECF074DB
:103A430002121447EDF08A0E8B0F742F12144712D3
:103A5300342DAA0CFB1222647401121447E9F0AA54
:103A63000CAB0D12226A7401121447E07003023C7E
:103A7300E9852182852283E480158E828F83A3A327
:103A8300A3A3A3E0D2E3F0852182852283E004127D
:103A93006CBBF8852182852283E0C3984003023CF6
:103AA300E07401121447E07003023CE08521828533
:103AB3002283123CEEE50C28F8E50D39F9E8240FD2
:103AC300FEE439FF8E82F583A3A3A3A3A3E0A2E0C0
:103AD30040B5750800750A08750B00740212144787
:103AE300E060037508207C087D00790074051211DD
:103AF300A6121ABA8E828F83E0603E90161BE06492
:103B030001701AE508D2E3F508750B10123CFE129A
:103B13001447E8F0A3E9125B2974FF807643080C8D
:103B2300750A0C8E828F83A3123D091271467405A8
:103B330012144774FFF0A3805A7404121447E06010
:103B430009E508D2E6F508750A0A8E828F83A3E099
:103B530064FE7003A3E0F47030741212144774040B
:103B6300126718F8741D121447E8124ED374121218
:103B730011A61221927D007C00790074151214475E
:103B8300AA82AB83122A38800B123CFE121447E838
:103B9300F0A3E9F07407121447E508F0124240C09D
:103BA300E07409121447D0E0F0740A121447740148
:103BB300F074051211A61224327411121447E06036
:103BC30003023CBE740D1214471257888E828F83F2
:103BD300A3A3A3A3F0740D121447124EA1E50AF098
:103BE300A3E50BF07403121447E0C0E0124E32D089
:103BF300E0125E45601190161BE0C0E0740D1214D4
:103C030047124E7CD0E0F0740D1214471243AC857A
:103C13000C82850D83A3A3A3A3A3123CF7241C1238
:103C230064A7127160123CF9125DF739126BEBC095
:103C3300E0124E19D0E0126CB0C0E0740D121447BC
:103C430012495FD0E01269B1C0E0740D121447123B
:103C53004955D0E0F0740D121447123D09123CF798
:103C6300242A1264A7850E82850F83A3A3A3A3A38B
:103C7300A3A3A3E01264A012422FC0E0124941D0D3
:103C8300E0F0740D121447125066850E82850F837F
:103C9300126CC62428F582E43B1271441242381296
:103CA3006CD712113C1261A1EA1264393B127E8473
:103CB30012111D74051211A61224388E828F83A34C
:103CC300A3A3A3A3E0D2E0F07411121447E06003AE
:103CD300023A7D7401121447E014023A897900AA6A
:103CE3000CAB0D122336741F026D75E075F007A43B
:103CF300F8A9F022A3A312506AE8228E828F83A32D
:103D03001243B0740522E0123D11A3A3A322F8A32A
:103D1300E0F9850E82850F83A32274F0120B1274CF
:103D2300E81211B6E9852182852283F08A0E8B0F72
:103D33008A828B83A3A3A3A3A3A3A3A3E0F9122241
:103D43008E8A088B09EA4B7003023DFAE50E125581
:103D5300FB1242581241EF852182852283E06003E2
:103D6300023DFD7C04850E82850F83A3A3A3A3A339
:103D7300A3A3A3E0F9122294EE4F607B8E828F837C
:103D8300A3A3A3A31243AC74071214471265DE1254
:103D930043AC7409121447124F03C0E07411121498
:103DA30047D0E012698FA3A3A3A3A3A3A31243AC99
:103DB300740F1214471271467412121447E4126DF1
:103DC3006BC8241FF582E438F58312616CC41313A6
:103DD3005403FC70027C048E828F83E0F97808120E
:103DE3001140742059FD744059F974031211A6123D
:103DF300232A740212111D026D737C08850E8285BD
:103E03000F83A3A3A3A3A3A3A3A3E0F91222948BD9
:103E13000BEA4B7003023D7BEE4F60DB852182850D
:103E23002283E0F50C780C121144850882850983FE
:103E3300A3A3A3A3A3A3A3E0F50C780C1211448AB4
:103E4300828B83A3A3A3E0FB8A82850B831279A3CE
:103E53008A82850B83E0FA8E828F83A3A3E0F91213
:103E63002B9A740212111D023D7F74F7120B127408
:103E7300FA1211B6E9FE780179017F008003790017
:103E83000F1251E2E0FCEFC39C5026EF75F007A43C
:103E9300FC85F008AD08EA2CFCEB3DFD1247D1E0B0
:103EA300A2E050DA540C60D6E0A2E250D37800804E
:103EB300CF8A828B83A3A3A3A3A3A3E0703DE9A22C
:103EC300E0400574016E70338A828B83A3A3A3A39E
:103ED300A3A374011241C1E0C0E07403121447D0DC
:103EE300E0124830E0C0E07404121447D0E0F074EC
:103EF30005121447E812610B12246E7406024A4E2F
:103F0300C082C0837901122336025F4774F4120B17
:103F130012EA4B90185A6019E4F08A088B09F50AE3
:103F2300F50B78081211387A0212343512111D80FC
:103F33000A7401F07A027B0012342202351D74F0F8
:103F4300120B1274F31211B67403121447E4F0A3A4
:103F5300F090158B1241EF7401121447E4F0A31291
:103F63004ED804F09015C5E0A2E35003024034128A
:103F730041B57409121447121418740912144778BE
:103F8300081213D490158D78081211867405121433
:103F93004778081213B61240B8740512144778080C
:103FA30012137750077A017B000240A5740512149F
:103FB30047780C1213D49017FAE0F509780C7908B6
:103FC300120AA3A80CA90D9017FBE0C398E499501B
:103FD30003E08001E8852182852283F074091214AD
:103FE3004778081213D4C008C009C00AC00B74056F
:103FF300121447780C1213D41240B8780C790812B3
:104003000AA3E4F50AF50BD00FD00ED00DD00C782F
:104013000C790812125E90158D780C1213B680116C
:104023001240AA127146EEFAEFFB121B68AE08AFFC
:1040330009EE4F60658E828F831236A8C398502D88
:10404300EE2403F8E43FF9E0FA88828983E0C39A17
:10405300F0602374031214471245127401121447BB
:10406300EEF0A3EF1265F9FEA3E0FF80C48E828F0A
:1040730083A3A3A3E4F08E828F83127E3D74011287
:1040830014471256788E828F83A3A3A3A360911241
:1040930065D21214471240B1808974031214471277
:1040A3005066740D026D751243B090158B22126128
:1040B30097A3A3A3229017F9127E45E4F50AF50B03
:1040C3002274F0120B128A088B09890A780079008E
:1040D30090158B1241EFFBEE4B601E088E828F838F
:1040E300A3A3A3A3125030601008E87001098E82C5
:1040F3008F831241EBEA4F70E39017FC125066C3B3
:10410300E89AE99B40030241A87A061241ABA80C46
:10411300A90DEA4970030241A88A828B83E508F05E
:10412300A3E5091241CAE50AF09017FB1251EA12FE
:1041330041C1A3E4F0A3F090158B125030600D8EB3
:10414300828F83A3A3A3A3127146801790158B12AA
:1041530071469015C5E0A2E340091241B590158D53
:104163001214189015C5E0A2E3503A7A087B009028
:104173001570E0F9121C3AEA4B4C4D70289017F970
:10418300E0F508A3E085080CF50DE4F50EF50F78CE
:104193000C1211387A087B00901570E0F9121C2E6E
:1041A300740412111D026D787B00121B628A0C8B42
:1041B3000D22121C4CEAF8EBF9ECFAEDFB2212414A
:1041C300C5221241CAA322F08A828B83A3A322E5CC
:1041D30008F0024A51F08E828F83A3A3A3A3A3A363
:1041E30022125AE2A3A3F022A3A3A3A3E0FEA3E017
:1041F300FF227F05020E72F582E43509F583E0F9AB
:1042030022EA124209222410F582E422124217A361
:10421300A3A3A3221243B4850882850983221242F1
:104223002522F0850A82850B83A3A322E50E2411A0
:10423300124255E022E50E240E12425522E50E24C9
:1042430010124255E02212424D22EE1242093FF56E
:104253008322F582E4350FF58322240FF50AE43532
:1042630009F50B780A22E0F9121AE48A088B09EAA5
:104273004B2274F2120B12890B8A088B098A828BE8
:104283008312506612235AEA4B600479B8806A128B
:104293002366E9F89031F8E493F9E8C39940047987
:1042A300B280567A151241ABAE0CAF0DEA4F7004D3
:1042B300791080458A828B83E4F0A31241CAE50B0F
:1042C300F0750A00780812113C7C127D00EA240381
:1042D300126C8212111D9015911256787008901568
:1042E30091800C1243AC888289831242FF70F4EEF2
:1042F300F0A3EFF0122378790002515212506AEAC8
:104303004B8882898322C082C08390159180048C5C
:10431300828D831279A4EC4D60288C828D83A3A3B4
:10432300E069600574FF6970E68C828D83A3A3A3A3
:10433300E06A7003A3E06B70D6EC2403FAE43DFB60
:1043430080047A007B00025F4774F7120B12E9FDC9
:1043530074FE6D70047C0180027C009015918009CD
:104363006D70027C0188828983125678601F88826F
:104373008983A3A3A3E06A7003A3E06B70E7ECA2B5
:10438300E088828983A3A3E050D6F9800279FE02F4
:104393004A51EEF9800CA3A3127E45EE2274021259
:1043A300111D7F02020E72F5831243B0221243B431
:1043B30022E0F8A3E0F9221243B48E828F83221203
:1043C300111D7F03020E72C082C083790090159184
:1043D300800109E0FAA3E08A82F583E582458370D0
:1043E300F1025F4774F6120B12E4F508F509780839
:1043F3001211409031F8E49375F013A4A9F012451B
:10440300071271A412111DE9FE74096E70031223C1
:104413007202439574F6120B1274FE1211B68521C3
:1044230082852283E4F0A3F0A821A92288088909C0
:1044330078081211407508027509007808121140B6
:10444300126E1512111D0243A074F5120B1274EBB8
:104453001211B6852182852283E4F0A3F090159191
:1044630080748E828F83A3A3E0C0E074021214478A
:10447300D0E0125B29A982AA8389088A09750A00F8
:10448300780812113C7C127D0074061214471271D5
:104493006912111D740212119E8808890978081285
:1044A300114075081375090078081211407404123D
:1044B300144712561B75F013A4F8AAF075F013E90C
:1044C300124503126E1D12111D852182852283124E
:1044D30045128E828F831241EFEE4F7085A821A97A
:1044E30022880889097808121140750802750900A5
:1044F3007808121140126E1512111D74150243C271
:10450300A42AF9E82402FCE439FD7A427B0022E084
:104513002401F0A3E03400F02274F4120B1274EBC4
:104523001211B67E007F00A821A922880889097884
:10453300081211407508028E0978081211407C0098
:104543007D007A421271B012111DE9706C8E0880E1
:1045530056740212119E880A890B780A121140754B
:104563000A13750B00780A121140E50875F013A4BD
:10457300F8AAF075F013E5091245031271B212118E
:104583001DE9701B7403121447AA82AB83740212D1
:104593001447E0F9122354E970050EEE70010F057C
:1045A30008E508700205098521828522831243AC40
:1045B300C3E50898E509994098EEFAEFFB741502F4
:1045C300351A74F6120B128C828D83A3A312481E24
:1045D300F0EA12643F3BF583E0C0E01247DBD0E032
:1045E300F0EA241DF582E43B1243AA1247BF1248A6
:1045F30019F0A3F0EA241FF582E43BF5831241EF9F
:10460300EC1247B23DF583EEF0A3EFF01247B83B4F
:10461300F5831247E9A3A3A3A3A3A3EEF0A3EF1289
:10462300609AFE8C828D8312482874035EFEC394C5
:104633000340030247A5EE600874026E600302465E
:10464300CA8C828D83E0540CFE740C6E7003024797
:1046530009E0A2E4400D88828983E08C828D83A3E4
:1046630012483E74086E60030247091247C9740179
:10467300F08A828B83A3A3A3A3A3125AEF70148C93
:10468300828D83E0440C124830A3A31247E9EEF075
:10469300A3EFF08C828D83E0A2E4402B8882124743
:1046A300F712480C500109F5821247F7A3A3A3A3FD
:1046B300A3A3F0A3EF1248388C828D83A3A3A3F0A6
:1046C300E82403F850010988828983E0C0E0EC24E0
:1046D30011F582E43DF583D0E01248288C828D8366
:1046E300E0A2E7507588828983E0FE8C828D831275
:1046F300483E74FC5E700C8C828D83A3E05403648B
:1047030003701E0247A51247C9E4F0740C6E6003E0
:1047130002467488821247FD12480C500109024672
:10472300968C828D83A3E05403603288828983E070
:10473300C0E0EC1247E33DF583D0E012483F8C82A2
:104743008D83E054036402701488828983E0C0E09F
:104753001247D1D0E012483F8003A3E4F0EC125596
:10476300E73D127144EC2410FEE43DFFEA241DF5FD
:1047730082E43BF583E0F5088E828F83E0C39825BE
:1047830008F508F0EA2417F8E43BF98882F583E09A
:10479300C39508C0E01247BFD0E012609AC39508E2
:1047A300500A1247BFE4F01247DBE4F00243A524AA
:1047B30015F582E422EA240DF582E422EC240DF5BA
:1047C30082E43DF58322EC1257A03DF58322EC24CD
:1047D30014F582E43DF58322EC1242093DF5832270
:1047E3002413F582E422E0FEA3E0FF8C828D83A3F1
:1047F300A3A3A3221247FDA3A3228983E0F508A361
:10480300E0FFE5088C828D8322A3A3A3A3F0A3EF8B
:10481300F0E82402F82212481EA322E4F08C828DD1
:1048230083A3A3A322124846A882A983221241C5C7
:10483300A3A3A3A322124846A3E022A31248460837
:10484300A983221260A3A32274F4120B1274F3122D
:1048530011B68A0A8B0BECFEEDFF8C82F583E054D4
:104863000CF508E0A2E75006E508D2E7F508E508ED
:10487300D2E1F508125AEF7006E508D2E4F508E034
:10488300A2E55006E508D2E5F5087C087D0079002D
:10489300AA21AB22121ABA7402121447E508127144
:1048A3004AC0E07403121447D0E0124ED8E50AF070
:1048B300A3E50BF074051214471269B6121447E00E
:1048C30070777408121447124E5E12608C381269A6
:1048D300D1C0E0740812144712495FD0E01269B1E5
:1048E300C0E07408121447124955D0E0F07408125E
:1048F300144712494BE0124E86124F071264A0EE82
:104903002411125ABBC0E0124941D0E0F0EE241446
:10491300125ABBC0E07408121447124E5E2435F5D8
:1049230082E438F583D0E0124EABC0E07408121471
:1049330047124E62D0E012670A740D02351AE8245A
:1049430032F582E439F583221243BAA3A3A3A3A3C6
:10495300A322124E72126BB038F58322124E7224C8
:1049630026F582E438F5832274F7120B127E008A4F
:10497300828B83A3A3A3A3A3A3A3A3A3E064046041
:1049830003024A2D125798E06003024A2D1255FA8A
:104993003B1256767003024A2D88828983E05403C2
:1049A3006003024A2DE81257A039F583E0FA8C829E
:1049B3008D83A3A3E0FBA3E0CB2411F582E43BF5B5
:1049C30083E06A706588828983A3A3A3A3A3A3A3B7
:1049D300A3A3124A31E06A7003A3E06B704C888290
:1049E3008983A3A3124A3DE0FFA3E0CF2406125A12
:1049F300BB6A7003A3E06B703188828983A3A3E051
:104A0300F88C828D83A3A3E0F9A3E0F5838982A3C5
:104A1300A3E06860138C828D83A3A3A3E0F583894D
:104A230082E0540C640470027E01EEF98020124A85
:104A3300352212506E8C828D8322A3A3124A35A392
:104A4300A322740C121447E0F9740D12111D7F0197
:104A5300020E7274F6120B1274FC1211B6EAFEEB1C
:104A6300FFECFAEDFB8C82F583A3E0540360169010
:104A7300158712567860597900EEFCEFFD126297A4
:104A8300122BC6804B852182852283EEF0A3EFF0A3
:104A93007402121447124ECDAC21AD227A907B23BF
:104AA3001225B88A088B09A808A909EA4960218A4E
:104AB300828B83A3A3A3A3A3A3A3A3A37406F07AC4
:104AC3000088828B83124E5E126460E0F912251611
:104AD30074040243A274F2120B1274F31211B6EAB5
:104AE300FEEBFF8A82F583A3A3A3A3A3A3A3A3A39C
:104AF300A3E0F50A90185AE0700579BA024E1675CC
:104B03000801750900750C00750D007C087D00799E
:104B130000AA21AB22121ABA7405121447740112A7
:104B23004EE0540460127402121447E0D2E6124EAF
:104B3300E054087003750803E054106006744045A0
:104B430008F508E0540860227402121447E044C0D8
:104B5300124EE05420600A7403121447E0D2E0803E
:104B6300087403121447E0D2E1F0EE2415125ABB85
:104B7300124E467003740169700674084508F508FF
:104B83008E828F83A3A3A3A3A3A3A3A3E070161270
:104B930026128521828522831264AD740212144782
:104BA300E0D2E28030640F70107402121447124E88
:104BB300E874044508F508807F8E828F83A3A3A33E
:104BC300A3A3A3A3A3E064028E828F83700A12714E
:104BD3007DE8F0A3E9F08060A3A3A3A3A3A3A3A309
:104BE300E06403700DAC21AD22EEFAEFFB1223C695
:104BF30080468E828F83A3A3A3A3A3A3A3A3E0646E
:104C030001703590161BE060107402121447124EA7
:104C1300E8750910750AFF80187402121447E044FE
:104C23000C124ED874FDF0A374FFF074044508F51C
:104C3300088E828F8312342DEE2415125ABBA2E004
:104C4300503F7402121447E0540C701B8E828F8302
:104C5300125066122012E9700579BB024E167402D7
:104C6300121447E0D2E5F0EE2415125ABBA2E0502D
:104C7300107402121447E0540C64047004E0D2E58B
:104C8300F0EE2411125ABBC0E07404121447D0E0B2
:104C93001269B8121447E06003024E0F740812142D
:104CA30047124EA1E508F0A3E509F0124E3CE0C01F
:104CB300E0124E32D0E0F0124E23E0C0E07408124E
:104CC3001447124E5E1247E338F583D0E0124F07C4
:104CD3006401701190161BE0C0E0740812144712AF
:104CE3004E7CD0E0F07408121447124E9C124E2DE5
:104CF300FAE8241CF582E439F583EA124ED3EE2454
:104D030015FAE43FFB8A82F5831279A4E8125DF772
:104D130039F583124ECDEE241C125ABBC0E0124E5D
:104D230019D0E0125F3D124E46700374016970138F
:104D33007408121447125788FAEE241D125ABBF94D
:104D430012229A8E828F83A3A3A3A3A3A3A3A3A3B5
:104D5300E0C0E0740812144712495FD0E0F0740811
:104D6300121447124955E50AF074081214471256F3
:104D73001B2428F582E439F583E50CF0A3E50D1235
:104D83004EB3124E86125B341264A0EE124E2DC047
:104D9300E0E82433F582E439F583D0E0F0EE241B18
:104DA300125ABBC0E07408121447124E62D0E0F0EE
:104DB300EE241A125ABBC0E07408121447124E5E56
:104DC3002432F582E438F583D0E0124EAB124E5212
:104DD30012113C126BB61279A4740B121447124EC3
:104DE3005E242F127E8012111DEE2415125ABB541D
:104DF3004060129015A7125678600AAA21AB2212BE
:104E03006297122BC6AA21AB22122438740C1214F7
:104E130047E0F902514DE82420F582E439F5832275
:104E2300EE2419F582E43FF58322126BC5E022E8F4
:104E33002412F582E439F58322EE2418F582E43F47
:104E4300F583225480F8A3E05401F974806822F5B5
:104E530008A3E0F509750A00780822124E7222129F
:104E63004E722434F582E438F58322A3A3A3A3125C
:104E73004E7622E0F8A3E0C822124E721247B238EF
:104E8300F58322FAA3E0FBE8242AF582E439F583CB
:104E9300EAF0A3EB22A3A3A3A31243B0EE2212567C
:104EA3001F1255FF39F58322F0EE2413125B3C22C7
:104EB300F0EE240D125B3C22E0FC8A828B83E02C13
:104EC300FCA3E03400FD8A828B83ECF0A3EDF02297
:104ED300F0A3E4F022F085218285228322F0EE24E0
:104EE30015125B3C22E0D2E3F0124EF0228E828F49
:104EF300831243B4852182852283E8F0A3E9F0225B
:104F0300E8F0A3E91265F3E02274F7120B128A8228
:104F13008B83A3E0640170047E6380027E648A82D3
:104F23008B83E060087905124F4024F3FE9015C38C
:104F3300E06007F9124F4024F2FE024A2D1224E0EA
:104F4300E9F8EEC3982274F6120B1274FE1211B62E
:104F53008521828522831264ADE9FEECFAEDFB9094
:104F630005C21256786032A821A9228808890978D7
:104F7300081211407D01740E121447E0FCEEF99003
:104F830005C2126481122BC6740212111DEA4B6012
:104F9300047900800679B2800279B60243A074F7DF
:104FA300120B12E9FE90157D125678601F740912D8
:104FB3001447E0F5087808121144EEF990157D12B4
:104FC3006481122BC6740112111D800279B6024A44
:104FD3005174F7120B128908ECFEEDFF79B5E50861
:104FE300245E602014600624F86034803D9005C47C
:104FF30012503060351271C1122BC68E828F83120C
:1050030064AD802490157F1279A4EC4D601CEEFCF6
:10501300EFFD90157F126481122BC6E9F9800B9086
:10502300157B125036121C647900024A5112506AE1
:10503300EA4B221279A8EEFAEFFB2274F7120B1255
:10504300E9FE79B574AB6E700B90157B1250661246
:105053001C647900024A518E828F83A3A3A3A3A366
:10506300A3A3A312506A2212506E22E0FAA3E0FB1C
:105073002274F1120B12EAFEEBFF8C0A8D0B7508FA
:10508300019015CBE06E7003A3E06F700C125141D9
:10509300AA0AAB0B121C64805E122618EE6A700219
:1050A300EF6B7009AA0AAB0B12261E804AAC0AAD3D
:1050B3000BEEFAEFFB12216EE9F508901801E07090
:1050C30036122ACEE97030E508702C90159BE06EFD
:1050D3007003A3E06F7020EE4F601C750C93750D89
:1050E30015750E00780C12113C7C087D00AA0AABE2
:1050F3000B12716D12111DA908027AA074F2120B22
:1051030012EAFEEBFF8C088D09750A01125141EE7C
:10511300FAEFFB121C5EE9640170119015CB124388
:10512300AC850882850983127146800EAC08AD09EF
:10513300EEFAEFFB122174E9F50AA90A801112268F
:105143000C8A0C8B0DAC0CAD0D22740D12111D7F4E
:1051530006020E7274F6120B12EAFEEBFF7A0D7B57
:1051630000121B62EA4B6062EE2424126E4AF0EED8
:105173002425126E4AA312520F126E50A3A3126B70
:10518300E31251EAF0EE1251D01251FFE8F0A3E915
:105193001252261251F7127146EE1251D9126CA611
:1051A300A3A3A3A3F0EE2433125ABBC0E01251E22F
:1051B300D0E01269D51251F7A3A3A3E8F0A3E91233
:1051C300521EC0E0125798D0E0F00243A5242AF5FE
:1051D30082E43FF58322242EF582E43FF58322EA1D
:1051E300125C113BF583221251EE22E08A828B83FB
:1051F300A3A3A322126D05A3A3A3A32212520322E6
:105203001243B48A828B83A3A3A3A322F012521462
:1052130022EE2426F582E43FF58322F0EE243212B7
:105223005B3C22F0EE242C125B3C2274F4120B1232
:1052330074FE1211B6ECFEEDFFEC2416125ABB6499
:10524300057010EC2406FCE43FFD1223C0E9700353
:105253000252DAAC21AD22126EFF12201885218290
:10526300852283125678606B8E828F83E06401708F
:1052730058E875F009A4F8AAF075F009E9A42AF929
:1052830074F228F8740239F9E8FAE9FB8882F583A5
:1052930078081213D4EE12537C121377402785211A
:1052A30082852283124E9C125AC91252DF78081249
:1052B30013D490870A78081212FA8A828B837808AB
:1052C3001213B6800A79A28010EE240F127140796E
:1052D30000800679A1800279C8023518124EFDEECE
:1052E300126BD12274F2120B128A0C8B0DECFEEDB1
:1052F300FFEC125AC9E4F0A3F090874A780812131E
:10530300D4EC12537C1212216067EC240E125AC2A1
:10531300703478B39015C2E070289015F4E06401FE
:105323007020EC2411125ABBF91224C88B09A90965
:10533300EE1255FB3F1264ABEA4960047800800229
:1053430078A18808802EE060046402700A1223D2D8
:10535300E9F5087007801DE064037010EEFCEFFDB3
:10536300AA0CAB0D12203CE9F50880087508A18052
:10537300037508A3A908025152126BD1780822744D
:10538300F0120B1274F51211B6EAFEEBFFEA240ACF
:10539300FCE43F8C82F583127E411256057403129E
:1053A30011AE8A828B831262A1E9700302546B747B
:1053B300011211AE74031211A612201874011214F3
:1053C30047125678700302546BE875F009A4F8AAE3
:1053D300F075F009E9A42AF974EE28FC740239FD8A
:1053E300E508240E1266F2E4F0041214471243ACEB
:1053F300E5081255FB35091271448C828D83121412
:105403000CE50824121266F212141890870A780821
:105413001213D48C828D8378081212AE8C828D8302
:10542300780C1213D490870678081213D4780C7969
:1054330008120AA3E5084509450A450B702A7401B9
:1054430012144712561B75F009A4F8AAF075F00957
:10545300E9A42AF974F628F582740239F5837401F4
:10546300F07A007B081256288E828F83A3A3A3A30E
:10547300A3A3A3A3A3A3E02406FCA3E03400FD8E0F
:10548300828F831262A11269C3603EEE240A125511
:10549300ED124EA17468124ED3E81255E739F58325
:1054A3007402F09015AD12140C8C828D8312649AE1
:1054B30012608C3CF58312141890870A7808121333
:1054C300D49015AD78081212AE125663705D901524
:1054D3007B125613A3A3A3A3A3A3A3A3A3A3126003
:1054E300C2121C5EE9701012608090157B126092EC
:1054F30070051269C360348E828F83A3A3A3A3A311
:10550300A3A3A3A3A3125613125066122042E96069
:10551300118E828F83A3A3A3A3A3A312564FE4F0F8
:10552300A3F08E828F83125635E4F0125663600324
:105533000255E28E828F83A3A3A3A3A3A3127E3D6E
:105543009015C2E060030255D79015F4E064016042
:10555300030255D7750A3A750B00780A1211407485
:105563000212119E880A890B780A12114012743CA8
:1055730012111DE9705BE508240E1266F274011224
:10558300567DC0E0E50824111266F2D0E0F0E5088C
:10559300240F1266F2743A124ED39015A912140C0A
:1055A300E50824121266F212141890870A7808127A
:1055B30013D49015A978081212AE90870A780812AE
:1055C30013D49015A978081212217008125624805A
:1055D300031256051256637006125F8374A1F074AA
:1055E3000B026D75240EF582E422F8E43FF9E8FC22
:1055F300E9FD8882F58322EA1255FF22240FF58202
:10560300E422E5081255FF3509F583E4F0A3F022FF
:105613001279A88E828F832212561F221243B4E876
:10562300227A007B02901452E0F9121B0E228A8226
:105633008B83A3A3A3A3A3A3A3A3A3A3125643222E
:10564300124E76240EF582E438F58322A3A3A3A396
:1056530012565722124E76240FF582E438F5832230
:105663008E828F83A3A3A3A3A3A3124E6E240FF54D
:1056730082E438F58312561F492212568122F0859F
:105683002182852283E02274F6120B12EAFEEBFFDD
:105693007A237B00121B62EE240AF508E43FF50926
:1056A3008508821264AB7C237D007900121ABA85C7
:1056B3000882850983125678700302574BEEFAEF7E
:1056C300FB1223DE12566360748E828F8312577E21
:1056D30064018E828F83A3A3A3A3A3A3700712578E
:1056E30074740E802112567870101269C3700B8E79
:1056F300828F83A3A3E0A2E0500712576A740D8040
:105703000512576A74051269D554036401700712B0
:1057130057527405800B9015C3E0C0E0125752D066
:10572300E012578DF5838882125AE885088285092D
:1057330083124E5E12643F38F583E9800E8508823A
:105743008509831265248003126467F00243A58EE2
:10575300828F83A3A3A3A3A3A3A3A3A3A312576487
:1057630022E0126486A3228E828F83A3A3A3A3A322
:10577300A3124E6E12644538F58322A3A3A3A3A3F9
:10578300A3A3A3A3A3125643E02212579122126F9D
:1057930014F8A3E022EA1257A03BF58322240CF568
:1057A30082E42274F1120B1274E41211B68A0C8B88
:1057B3000D8C088D097A237B00121B628A0A8B0BDE
:1057C300AE0AAF0BEA4F7003025AA312644BE5080B
:1057D3002415125AD4687003A3E0698E828F8370F4
:1057E30004740280027401F0E508240DF8E435091D
:1057F300F98882F583E0FAC3E49AFA95E0FB125A3A
:10580300D02AFAA3E03BFB8E828F83A3A3A3A31228
:1058130060A98E828F83A3A3F0EE2420F582E43F58
:10582300F583E4F0EE2421F582E43FF583E4F0EE22
:10583300FAEFFB122492850882850983125AEF70CE
:10584300098E828F83A3740580069015C3125ADDD7
:10585300F0EE2417F50AE43FF50B8E828F83125A7C
:10586300E8E9850A82850B83F0EE2416F8E43FF914
:10587300E508240EFAE43509FB88828983124EBBBE
:10588300E5082410FAE43509FB850A82850B83E0D9
:10589300FC88828983E0F88A828B83E0C398C39C67
:1058A300F8125B29F0EEFCEFFDAA0CAB0D1223D826
:1058B300E9F50B8E828F83E064027006126080121A
:1058C3005AADE50B6003025A9A750C00750D0090F2
:1058D3001801E064016005E06402703F125ABF6082
:1058E30008EE2421125AC270328E828F83A3A3A39F
:1058F30012646D125AF5EE2416125ABB125B1EFA8D
:10590300E439FB1241ADEA4B6011126CCF12113C2A
:10591300125B03AA0C12716D12111DEEFAEFFB124A
:10592300249EE9F50B901801E064016008E064022D
:105933006003025A8DE97003025A8DE50C450D7020
:1059430003025A9A8003850E0B125ABF600BEE2492
:1059530021125AC26003025A93850B0E850C0885E7
:105963000D09750A00780812113C125B038E828FB1
:1059730083A3A3A3A3127E8612111DEE2420125A21
:10598300BB600D125AC87468124ED3EE24208015E2
:10599300EE2421125ABB6015125AC87403F0A37483
:1059A30001F0EE2421F582E43FF583E4F0EEFAEF13
:1059B300FB12249EE9F50B70907C137D0079007433
:1059C300091211A6121ABA741A1214477401125B3F
:1059D3003464687002A3E0704F8E828F8312564F37
:1059E300E0640560030259497C0879FF8E828F8346
:1059F300A3A3A3A3E0242A1260C5121B44E97003E6
:105A03000259497C087D0079FF74011211A6121A0C
:105A1300BA74011211AE7A007B0079AB1223BA7407
:105A23001912144774FC8015125AC8E064037004F9
:105A3300A3E064017008741912144774FFF0E4F5CD
:105A430008F509780812114074021211AE7413128A
:105A53001447AA82AB831265AA12111D8521828580
:105A63002283E0602B740912119E88088909780843
:105A730012114075081375090078081211407C0053
:105A83007D00126E1D12111D8006E50C450D600789
:105A9300AA0CAB0D121B68EEFAEFFB121B68800316
:105AA300750B10A90B741C027A9DEE2406FAE43FD1
:105AB300FB121C6422EE240C125B3C22EE24201207
:105AC3005B3C640122EE1255FF3FF58322E5082477
:105AD3000EF582E43509F583E022125AE2A322E0AF
:105AE3008E828F8322A3E0F91224E022E054036420
:105AF3000122125AF922E0FAE82AF8E43400F922E2
:105B03008E828F83A3A3A3126471125AF9EE241613
:105B1300125B3C125B1EFCE439FD22FAE82AF8E42E
:105B230039F9E8240422125B2D221269E4A3A3A30A
:105B330022F0125B3922EE240FF582E43FF583E075
